:020000040000FA
:1000000040600020050500000D0500000F05000000
:100010001105000013050000150500000000000098
:1000200000000000000000000000000017050000B4
:100030000000000000000000190500001B05000082
:10004000250B00001D0500001D0500001D0500001A
:10005000910B00001D050000AD0500001D0500000E
:100060001D0500001D0500001D0500007D0B0000A2
:100070001D0500001D0500001D0500001D050000F8
:100080001D0500001D0500001D0500001D050000E8
:100090001D0500001D0500001D0500001D050000D8
:1000A0001D0500001D0500001D0500001D050000C8
:1000B0001D0500001D0500000000000000000000FC
:1000C0001D0500001D0500001D0500001D050000A8
:1000D0001D050000B908000000000000000000003D
:1000E0000000000000000000000000000000000010
:1000F0000000000000000000000000000000000000
:1001000000000000000000000000000000000000EF
:1001100000000000000000000000000000000000DF
:10040000DFF80CD000F0B4F8004800476517000092
:1004100040600020401E00BF00BF00BF00BF00BF03
:1004200000BF00BF00BF00BF00BF00BF00BF00BFD4
:1004300000BF00BF00BF00BF00BF00BF00BF00BFC4
:1004400000BF00BF00BF00BF00BF00BF00BF00BFB4
:1004500000BF00BF00BF00BF00BF00BF00BF00BFA4
:1004600000BF00BF00BF00BF00BF00BF00BF00BF94
:1004700000BF00BF00BF00BF00BF00BF00BF00BF84
:1004800000BF00BF00BFC5D170470000401E00BFC5
:1004900000BF00BF00BF00BF00BF00BF00BF00BF64
:1004A00000BF00BF00BF00BF00BF00BF00BF00BF54
:1004B00000BF00BF00BF00BF00BF00BF00BF00BF44
:1004C00000BF00BF00BF00BF00BF00BF00BF00BF34
:1004D00000BF00BF00BF00BF00BF00BF00BF00BF24
:1004E00000BF00BF00BF00BF00BF00BF00BF00BF14
:1004F00000BF00BF00BF00BF00BF00BF00BFC5D12D
:10050000704700000648804706480047FEE7FEE7C0
:10051000FEE7FEE7FEE7FEE7FEE7FEE7FEE7000098
:10052000B50B00000104000040EA01039B0703D063
:1005300009E008C9121F08C0042AFAD203E011F822
:10054000013B00F8013B521EF9D27047D2B201E0E4
:1005500000F8012B491EFBD270470022F6E710B5C8
:1005600013460A4604461946FFF7F0FF204610BD21
:10057000064C074D06E0E06840F0010394E80700F0
:1005800098471034AC42F6D3FFF73EFF6C8C000066
:100590008C8C000010B502F01DF802F0B5F800F0E8
:1005A00061F900F05BFC00F037FA10BD2DE9F04F67
:1005B00087B00027BA464FF48070069001250024CA
:1005C00012E0069801F034FF40B100BF60480068B7
:1005D000284018B1069801F01DFF2F436D000698C2
:1005E000001D80B20690641C082CEAD34FF4BE7044
:1005F00001F01EFF48B14FF4BE7001F00BFF47F051
:10060000004700BF534800688246F8B2F8B10125A0
:1006100000241AE005EA0700A8B100BF4E4850F8D0
:100620002400C0F30420064600BF4B4850F82400C5
:10063000C0F301408046204600F09EFE81464146C0
:100640003046C84700BF6D00641C082CE2D307F099
:100650000040002879D04FF0000B00200590401E8C
:10066000049000BF4FF0000B002457E03B48005DB2
:100670000390039820F0C00638480057401C00281B
:100680004BD00120B04004990840002845D0039881
:100690004FEA9019304600F0B7FE804600F06CFE3D
:1006A0000290029810B9B9F1030F35D1012000FA78
:1006B00006F5B9F1030F02D105982843059000BF54
:1006C000274850F82600C0F3014800BF05EA0A0099
:1006D00010B1B8F1020F05D005EA0A00D8B9B8F197
:1006E000030F18D1B9F1030F0FD1B8F1020F01D1E7
:1006F000032000E0022001903046019901F058FEED
:100700000BF1010000F0FF0B00BF029818B1494641
:100710003046029A904700BF00BF641C002CA5D051
:10072000BBF1000F0DD000BF0A49096808465045CB
:1007300003D14FF0000B03E007E0824605990491D6
:1007400000BFBBF1000F8DD100BF07B0BDE8F08F37
:100750000463004010050050106500401840002060
:1007600000070050FEB506460F460024002034491D
:100770000870304600F0D0F93249304600F0C8FC2D
:100780003149087001200090084603782D4A1A214B
:100790002E4801F067FD044600BF254635B100BF75
:1007A0002BA24E21284600F094FA00BF00BF00BFE4
:1007B000234800780028FBD000202149087000243D
:1007C000029027A0006801900020087000BF01235C
:1007D00001AA1A2100901D4801F044FD044600BF03
:1007E000254635B100BF1AA25B21284600F071FAF8
:1007F00000BF00BF00BF124800780028FBD00020D7
:100800000F4908700024012302AA1A210F4801F0A1
:1008100013FD044600BF254635B100BF0CA262217E
:10082000284600F056FA00BF00BF00BF0448007819
:100830000028FBD014B1002001490870FEBD000063
:10084000020000205400002000000020202C0000A6
:10085000693263315F6D61737465722E63000000ED
:10086000030000007FB50D4B0FCB8DE80F00002378
:100870000B4A69460B4801F091FC044600BF25462F
:1008800035B100BF08A29C21284600F022FA00BF23
:1008900000BF044801F04EFC7FBD0000282C000082
:1008A00031150000202C0000693263315F6D6173E7
:1008B0007465722E630000002DE9F04100250026CA
:1008C0004FF48A71514801F0FBFD20B34FF48A7157
:1008D0004E4801F0FCFD4E48C068E0B100BF4D48F5
:1008E00000684B49C968884206D14948C0684849F0
:1008F000C98800EB810401E04548C46821464348AB
:1009000001F0EEFD4248407920F00400001D40490E
:100910004871264600BF4FF482713C4801F0D0FD7B
:1009200098B34FF48271394801F0D1FD384880689E
:1009300058B300BF3748083800683549896888428D
:1009400006D1334880683249C98800EB810401E050
:100950002F48846821462D4801F0BCFD2C48407981
:1009600020F00200801C2A49487108464079C0F3F3
:10097000C00058B10846407900F0010030B908467F
:10098000407920F00800487101E001E0254600BFF1
:100990001F48407900F0010040B905B92EB31C484A
:1009A000C28831460368284698472DE018484079A8
:1009B000C0F34000C8B116484079C0F38000A0B130
:1009C0001348407920F002001149487108464079E7
:1009D00020F00400487108464079C0F3C00028B1F7
:1009E0000846407920F0080048710DE000BF094832
:1009F000006804460548D0F8380507460448C28810
:100A00002146036838469847BDE8F081005002400F
:100A1000B03F00204055024070B586B0012600204E
:100A20001A49087000241422194901A8FFF77CFD17
:100A300005208DF8040006208DF8050008208DF8AB
:100A4000060007208DF8070004208DF8090000201B
:100A50008DF80C0001208DF80E0008208DF8140090
:100A6000800604900B4901A801F012F9044600BF6A
:100A7000254635B100BF08A25A21284600F029F9C1
:100A800000BF00BF04B1002606B070BD20000020EA
:100A90000C8C0000C91400006932735F6D617374BF
:100AA00065722E630000000070B500F029FA002185
:100AB0000620FFF757FE1149114800F05FFA0024A5
:100AC00000230E4802880E49184601F02DF904460D
:100AD00000BF254635B100BF0AA26921284600F0B3
:100AE000F8F800BF00BF04E0042000F08DFA0949C7
:100AF0000870084800780728F6D170BD1E00002055
:100B0000080100206932735F6D61737465722E6332
:100B1000000000002000002001490870704700001C
:100B20000100002010B54FF4807000F0A9FE70B1F4
:100B30004FF4807000F0ADFE012000F0B3FE012004
:100B40000D49487200210C48001D00F063FC4FF471
:100B5000827000F095FE70B14FF4827000F099FE43
:100B6000022000F09FFE0120034988720121024803
:100B7000103000F04FFC10BDC03F002010B5032224
:100B80000021024801F064FA10BD000000B00040EE
:100B900010B503494FF0402000F03CFD10BD0000AF
:100BA000883F002001480249086070470090D00348
:100BB0005000002010B500F0D3FC28B13148006887
:100BC00020F080702F49086000F006FD10B103206E
:100BD0002D49086000F0E2FC30B100202B4908608C
:100BE0004FF08041C1F8100126487438006840F485
:100BF0007000244974390860BFF34F8FBFF36F8FC3
:100C00002348006800F0004020B92148006800F047
:100C1000004098B301201F49086000BF1E480068CB
:100C20000028FBD015201A49086000BF1A48006848
:100C30000028FBD015211648001D016000BF164892
:100C400000680028FBD000201249086000BF12484D
:100C500000680028FBD000BFBFF34F8F0948F03871
:100C6000006800F4E0600D490843001D0549F039B3
:100C70000860BFF34F8F00BF00BFFEE7FFE7FFF73D
:100C800091FF10BDFCED00E0A00500400C0100400C
:100C90000012001004E5014000E401400000FA05E4
:100CA00002E008C8121F08C1002AFAD17047704735
:100CB000002001E001C1121F002AFBD1704770B56E
:100CC00004460D46164632462946204600F012F8E4
:100CD00070BDFEB504460E461546B0B2ADF8000034
:100CE000019502946A46002144F20100FFF7E7FFF4
:100CF000FEBD000018B5012300939DF800301E4B87
:100D0000186059609A606FF48043034463B1012B0B
:100D100019D1194BDA60DB681B88174CA361234695
:100D2000DB685B68E3610EE0134B1A611B699B682B
:100D3000114C636123461B691B88A36123461B6911
:100D40005B68E36100BF00BF0B4B1B680A4B5B682D
:100D5000094B9B68084BDB68074B1B69064B5B69BB
:100D6000054B9B69044BDB6972B600BF9DF80030F0
:100D7000002BFBD162B618BD1C40002010B5044604
:100D800001F016FC012803D003A1232000F058F83D
:100D900000F040F810BD0000636F6D706F6E656EFF
:100DA00074735C6C69627261726965735C75746995
:100DB0006C5C6170705F7574696C5F706C61746697
:100DC0006F726D2E6300000010B5044601F0F0FB59
:100DD000012803D003A1312000F032F800F024F8FC
:100DE00010BD0000636F6D706F6E656E74735C6C28
:100DF00069627261726965735C7574696C5C61705B
:100E0000705F7574696C5F706C6174666F726D2E63
:100E10006300000072B603480068401C0149086086
:100E2000704700004C00002004480068401E034941
:100E300008600846006800B962B670474C000020A0
:100E40007CB505460C46ADF8005001946A46002179
:100E500044F20200FFF733FF7CBD000010B5032011
:100E6000234908700020234908700871C860487140
:100E70008860C88009202049087000210120FFF700
:100E800071FC00210220FFF76DFC01201B49C87195
:100E900008200872122048726E2088721820C872CA
:100EA000C020087322208873CD2048711248007832
:100EB000C8741148007808750820C87308748B201E
:100EC00008700320487000208870802088713620C8
:100ED000C870A5200871C0204873F92088740021CB
:100EE0000320FFF73FFC4FF4FA7000F0EBFC10BD5D
:100EF0001C000020A80000200C0000209000002012
:100F00001748184A106018485060154890601748F4
:100F1000D060134810611648506111489061072154
:100F2000002015E0134A32F81030134A22F810302E
:100F3000103A5279521C104B103B5A711A46936862
:100F4000103232F810201A440B4B103B9A60401CB0
:100F50008842E7DB4FF4FA60074A103A5080704746
:100F600088740000E0000020582C00006844000055
:100F7000785C00000E000020B800002010B502468A
:100F80001F4B5B880B80002035E01D4B1B791D4CEF
:100F900054F823301A4CE48833F81430440022F813
:100FA0001430174BDB885B1C154CE38023461B7900
:100FB000144C54F82330124CE48833F814404300A6
:100FC0005B1C22F813400E4BDB885B1C0C4CE3804F
:100FD00023461C79103333F814305B1E084CE48828
:100FE000A34206DA064B1B795B1C054C23710023D8
:100FF000E380431C98B2024B5B888342C5DC10BD82
:10100000A8000020E0000020FEB5064600240020D5
:10101000324908703046FFF77FFD3149304600F015
:1010200077F83049087001200090084603782C4A70
:101030001A212D4801F016F9044600BF254635B1A6
:1010400000BF2AA279212846FFF743FE00BF00BF58
:1010500000BF224800780028FBD000201F490870FC
:101060000024029025A0006801900020087000BFB5
:10107000012301AA1A2100901B4801F0F3F804464D
:1010800000BF254635B100BF18A286212846FFF7CC
:1010900020FE00BF00BF00BF104800780028FBD032
:1010A00000200E4908700024012302AA1A210E48CC
:1010B00001F0C2F8044600BF254635B100BF0BA2BF
:1010C0008D212846FFF705FE00BF00BF00BF034883
:1010D00000780028FBD09DF80800FEBD020000202B
:1010E0005400002000000020202C000069326331F1
:1010F0005F6D61737465722E630000000300000071
:1011000010B500210820FFF72DFB00F0D3FE10BD25
:1011100070B503460A46092B5DD2DFE803F00506E9
:101120001C27113A3B46510056E00221002004E002
:101130002B4C245C1454441CE0B28842F8DB4BE096
:101140000221002004E0274C245C1454441CE0B22B
:101150008842F8DB40E00221002004E0224C245CBD
:101160001454441CE0B28842F8DB35E01F4D0024E3
:101170002A2100200AE01E4E365D1654461CF0B2AD
:101180002E5D1654661CF4B2461CF0B28842F2DBA7
:1011900022E021E00221002004E0164C245C1454DB
:1011A000441CE0B28842F8DB16E00421002004E091
:1011B000114C245C1454441CE0B28842F8DB0BE070
:1011C0000221002004E00D4C245C1454441CE0B2C5
:1011D0008842F8DB00E000BF00BFC8B270BD00006D
:1011E0004F2C0000552C00004D2C000090000020DA
:1011F000382C0000512C000004000020532C00006B
:1012000070B506460C463348C168408801EB400083
:101210003049C86008460078401C0870084680685D
:10122000C968401A042809D200202A4908700871A8
:10123000C86048718860C880FFF762FE25488068F2
:101240002449C968401AB0EB440F06D2214880688F
:101250002049C968401AC0F34F04002535E01D48F5
:1012600000791D4951F820001A49C98830F8110049
:10127000690026F811001748C088401C1549C8802D
:1012800008460079144951F820001249C98830F8FD
:1012900011106800401C26F810100E48C088401C31
:1012A0000C49C88008460179103030F81100401E02
:1012B0000849C988884206DA06480079401C054971
:1012C00008710020C880681C85B2A542C7DB0148B0
:1012D000448070BDA8000020E000002010B5044646
:1012E000D4B1012C31D11A480078402813DA1848BB
:1012F0000078401C164908704920164908701448A7
:10130000007848704820887011480078C870002123
:101310000720FFF727FA18E00D480078002813DDB2
:101320000B480078401E0A49087049200949087096
:101330000748007848704820887005480078C870D1
:1013400000210720FFF70EFA00BF00BF10BD00000C
:101350000C000020040000204FF0FF31054A42F845
:101360002010082804DBFF23A0F108014432535465
:1013700070470000D43F00200146024850F8210089
:1013800070470000D43F00202DE9F04F03460C4683
:101390004FF0FF390AB1002000E0082084460AB16E
:1013A000082000E009208046614624E0154850F8F6
:1013B0002100401CF0B91D460846274616464FFA44
:1013C00080FBDFF840A00AF1240A0AF805B0DFF834
:1013D00034A04AF820704EB94FFA85FBA0F1080AF4
:1013E000DFF820E00EF1440E0EF80AB000BF4FFA0D
:1013F00081F902E0491C4145D8D300BF4846BDE809
:10140000F08F0000D43F002001460148405670474D
:10141000F83F002070B506460C460AE0304600F062
:1014200085F905461DB120466968884700E001E05E
:1014300000BFF3E700BF70BD2DE9F0410446A0797D
:1014400030B9207800F0A7FF607800F0A4FF07E033
:101450002078002100F092FF6078002100F08EFFDC
:10146000A078FF2804D0A578284600F094FF01E07A
:101470004FF0FF35E078FF2804D0E678304600F0E2
:101480008AFF01E04FF0FF362079FF2805D0277949
:101490000021384600F072FF01E04FF0FF370948A5
:1014A0002178627840F2645319501B1D1A50C0F81D
:1014B00060554FF4AE631E501B1F1F5000BFBDE8A8
:1014C000F08100000050024070B506460C461546FB
:1014D0001CB129462046FFF793FE70BD01490870F4
:1014E000704700004200002001480078704700006B
:1014F00041000020014800787047000040000020B3
:101500000848007808490978884201D100207047CE
:1015100005480078054908700248007802490870BB
:101520000120F4E74200002040000020410000209C
:1015300000B502460B46107820B1012806D00228DB
:1015400006D104E001200549087001E000E000BF79
:1015500000BF0020FFF7E0FA00BD000002000020FD
:101560000D480078062814D10B48001D007800F0C3
:101570000F0070B908480830007800F0F0003028FB
:1015800007D105480C30007800F0F00008B90120C0
:1015900070470020FCE70000E00F00F00D480078E5
:1015A000062814D10B48001D007800F00F0070B918
:1015B00008480830007800F0F000302807D10548CE
:1015C0000C30007800F0F00008B9012070470020CE
:1015D000FCE70000E00F00F00D480078062814D169
:1015E0000B48001D007800F00F0070B90848083063
:1015F000007800F0F000302807D105480C30007862
:1016000000F0F00008B9012070470020FCE700005E
:10161000E00F00F07FB505460C46206820B937A1E1
:1016200040F27B30FFF70CFC94F8210094F8201076
:10163000CDE9001004F12602D11E2846E36901F02D
:10164000ACF900B17FBD94F8230048BB207B022891
:1016500002D0207B032823D1E169206981421FD178
:101660006069E061E07B84F82000207EC0F34010D8
:1016700084F82100207B03280AD194F821000090EF
:1016800094F8203029462046E26901F017FA33E049
:1016900094F8203029462046E26901F007F92BE052
:1016A000D4E90412E06801AB07C394F82300A0B1A9
:1016B00000BFD5F8C414C5F8C41400BF084600F034
:1016C000020119B101218DF8001005E000F00401BC
:1016D00011B102218DF8001002E000208DF8000009
:1016E000002084F82400207E00F0040018B9684629
:1016F000D4E90021904700BF00BFA3E7636F6D707E
:101700006F6E656E74735C647269766572735F6E1A
:1017100072665C7477695F6D61737465725C6E721A
:10172000665F6472765F7477692E630001460868AD
:1017300008B102680A60704702681AB102680A605C
:10174000016002E000220A600160704710B54FF4AA
:10175000827000F09EF8022000F0AAF8082000F045
:10176000ADF810BDFEF716FF89E0FFF7C9FEB0B176
:10177000FFF7C0FE08B9FFF7C3FCFFF7BBFE012867
:1017800007D1FFF7B1FE022803D0FFF767FBFFF791
:101790008BF9FFF7AFFE022801D100F0A1FFFFF7A0
:1017A000A9FE012801D1012400E0002400F092FFED
:1017B000012801DB012000E0002004409CB10D2045
:1017C00000F010FE01280ED100F040FF322805D8AD
:1017D0000020FFF783FE00F071FF04E00220FFF716
:1017E0007DFE00F06BFFFFF785FE022845D10D203E
:1017F00000F0F8FD012801D1012400E0002400F0F0
:1018000025FFB0F5FA7F01D3012000E0002004405D
:101810002CB10120FFF762FE00F050FF2DE00D20FB
:1018200000F0E0FD08B9012400E0002400F00EFF04
:10183000322801D3012000E0002004403CB1012007
:10184000FFF74CFD00F03AFF00F04AFF15E000F012
:1018500041FF012801D1012400E0002400F03AFFFB
:10186000012800D100E00020044034B10020FFF73F
:1018700035FD00F023FF00F033FF40BF20BF74E7C9
:1018800001464FF08040405808B1012070470020C9
:10189000FCE708B500224FF080410A50095800913A
:1018A00000BF08BD01490860704700000803004000
:1018B00001490860704700000403004001229107BD
:1018C0000A50704701B506E00098401E009040F2B3
:1018D000E730FEF7DBFD00980028F5D108BD0000D9
:1018E00010B500240C48007A08B1852010BD0020F6
:1018F0000949486008600861C86000BF00BF012056
:101900000649086000BF0621002000F053F80120BE
:10191000014908722046E9E7C03F00201805004051
:1019200010B504461648007A18B916A1B920FFF779
:1019300087FA1348C068401C18B912A1BB20FFF7F2
:101940007FFA0020FFF71AFA0D48807A20B174B1AF
:101950000120616888470AE024B121460848103018
:10196000FFF7EAFE0648C06808B9FFF7EFFE044833
:10197000C068401C0249C8600020FFF725FA10BD6E
:10198000C03F0020636F6D706F6E656E74735C6432
:101990007269766572735F6E72665C636C6F636B9F
:1019A0005C6E72665F6472765F636C6F636B2E63EE
:1019B0000000000070B50B4601461A46002907DA00
:1019C0005407260E104C01F00F052D1F665503E03D
:1019D0005407250E0D4C655400BF00BF00F01F02D8
:1019E000012191400A4A440942F8241000BF00BF77
:1019F00000F01F02012191404209920002F1E02211
:101A0000C2F8001100BF70BD18ED00E000E400E076
:101A100080E200E00146C1F3073250B27047000097
:101A20002DE9F04705460E46202D04D32FA140F2A4
:101A30007710FFF705FA284600F08AFD20B92BA1A0
:101A40004FF4BC70FFF7FCF9284600F08FFDF8B1A9
:101A50002846FFF7D9FC083830490F5CBC11032C2D
:101A60000BD100BF2E4800680121A940084008B1F1
:101A7000032000E00220804605E0012C01D1022075
:101A800000E0032080464146284600F091FC2AE011
:101A9000284600F077FD30B32846FFF7B5FC044632
:101AA000A00000F5807087B220461E4951F8201032
:101AB00041F001021B4941F8202000BF384600F0E8
:101AC000A9FC7EB12846FFF79FFC8146FFF754FC36
:101AD0008046B8F1000F04D0012101FA04F000F0B3
:101AE000B3FC00BF00BFBDE8F0870000636F6D70FE
:101AF0006F6E656E74735C647269766572735F6E27
:101B000072665C6770696F74655C6E72665F647242
:101B1000765F6770696F74652E630000184000205F
:101B200010050050106500402DE9FC4704460E46A4
:101B30001746202C04D331A140F24F10FFF780F953
:101B40004FF00008204600F003FD10B14FF00808E8
:101B500051E0F27839462046FFF716FC0546681C2E
:101B6000002845D0B07860B100BFA10001F1A041CC
:101B7000D1F8001721F002002C4941F8240000BFE1
:101B80000CE096F80190002000904B46024601467A
:101B90000190204600F0E0FB00BF00BFF078D0B11C
:101BA0003078234951F82510224A1140204A42F842
:101BB0002510114651F825104FF4F85202EA04227C
:101BC0004FF4403303EA00431A431143184A42F8E2
:101BD000251000BF0EE0A5F108001749085C317818
:101BE00040EA811042B2A5F1080013490A5401E00D
:101BF0004FF0040800BF4046BDE8FC87636F6D707E
:101C00006F6E656E74735C647269766572735F6E15
:101C100072665C6770696F74655C6E72665F647231
:101C2000765F6770696F74652E630000000700506F
:101C300010650040FFE0FCFF1840002010B513487D
:101C400090F8450008B1082010BD002404E02046AB
:101C500000F0A8FC601CC4B2202CF8DB002404E0D7
:101C60002046FFF779FB601CC4B2092CF8DB062183
:101C70000846FFF79FFE4FF0004000F0E5FB012013
:101C8000024981F845000020DEE70000D43F002033
:101C90007FB504460D461DB915A16B20FFF7D0F89E
:101CA0001E48007910B1082004B070BD04B91C4C66
:101CB000207CA27A637AE168CDE90032CDE9021096
:101CC000237AE279A179174800F0C4FB08B907200C
:101CD000EAE72046FFF7B0FB104805606179252050
:101CE000FFF768FE01200D4908710020DCE70000C5
:101CF000636F6D706F6E656E74735C647269766528
:101D000072735F6E72665C6932735C6E72665F647A
:101D100072765F6932732E6300000000B03F0020CE
:101D2000508C0000005002402DE9FF5F04460D4634
:101D3000904624B91DB950A19D20FFF781F8404677
:101D400008EBD071C1F34F061EB94BA1A020FFF7DD
:101D500077F800BF53480079012803D0082004B069
:101D6000BDE8F09F00BF2CB1204600F0D9F808B9BB
:101D70001020F4E72DB1284600F0D2F808B9102061
:101D8000EDE7494FB346A146AA46C7F850B54946C4
:101D9000384600F09FFBB9F1000F01D0012100E0AF
:101DA00000214FF4A160C1515146384600F098FB24
:101DB000BAF1000F01D0012100E0002140F20C50E7
:101DC000C15100BF37488460C560C680407920F0AB
:101DD0000800083033494871039800F00100B0B1A1
:101DE0000846806898B10846C06880B108464079C6
:101DF00020F00100401C48710846407920F00200A4
:101E000048710846407920F00400487105E02548F3
:101E1000407920F001002349487100BF0120234987
:101E2000086000BF02201F4908710846C06878B1E9
:101E30000846407900F0010020B1C8684146FEF72D
:101E40008CFB05E01748C288C168036800209847EA
:101E50004FF48271144800F03AFB4FF48A71124833
:101E600000F035FB22201249086000BF00210E4817
:101E700000F033FB002072E7636F6D706F6E656E6C
:101E800074735C647269766572735F6E72665C69A6
:101E900032735C6E72665F6472765F6932732E6352
:101EA00000000000B03F00200050024000550240FA
:101EB0000453024010B50C48007918B90BA1E62074
:101EC000FEF7BEFF22201449086000BF042113481A
:101ED00000F003FB00BF00201049C1F8000500BF5F
:101EE00001200149087110BDB03F0020636F6D7083
:101EF0006F6E656E74735C647269766572735F6E23
:101F000072665C6932735C6E72665F6472765F697A
:101F100032732E630000000008530240005002405C
:101F2000014601F06040B0F1005F01D1012070472F
:101F30000020FCE710B50446607900EB4000094939
:101F4000085C012803D008A15F20FEF779FF00217B
:101F5000206800F0E3FA0220617901EB4101014AB7
:101F6000505410BD48000020636F6D706F6E656E39
:101F700074735C647269766572735F6E72665C72AC
:101F800074635C6E72665F6472765F7274632E63F4
:101F9000000000002DE9F04104460D46164626B12A
:101FA00060791E4941F8206002E00720BDE8F08119
:101FB0002DB9607900EB4000194901EB40056079CB
:101FC00000EB40001749085C08B10820EEE7A9784B
:101FD00094F90400FFF7EEFC2F88D4F80080B7F5E1
:101FE000805F04D310A140F20F10FEF729FFC8F85C
:101FF000087500BF2879617901EB4101094A114454
:102000004870E878617901EB410111448870012042
:10201000617901EB410150540020C7E744000020E2
:10202000648C0000480000202E5C636F6D706F6E42
:10203000656E74735C647269766572735F6E7266E6
:102040005C68616C5C6E72665F7274632E6800001F
:102050002DE9F04781460C4616464FF480374FF481
:10206000A078002520E03946484600F052FAA8B191
:102070004146484600F044FA80B13946484600F0EF
:1020800039FA3946484600F03EFA4146484600F0E3
:102090002AFAE8B21B4A52F8241088477F0008F158
:1020A00004001FFA80F86D1CB542DCD34FF4807831
:1020B0000121484600F02DFA68B14146484600F03B
:1020C0001FFA40B14146484600F00DFA0D4850F85D
:1020D0002410042088474FF482780221484600F0FB
:1020E00018FA68B14146484600F00AFA40B1414644
:1020F000484600F0F8F9034850F8241005208847B6
:10210000BDE8F087440000202DE9F04104460D466B
:102110004FF4807601273146206800F0E4F9394613
:10212000206800F0EAF91DB13946206800F0EEF9A8
:10213000BDE8F08170B50446207900EB80000A49C3
:1021400001EBC00595F82200012803D007A1FA2071
:10215000FEF776FE206800BF0521C0F8001500BF1D
:10216000022085F8220070BD883F0020636F6D70EB
:102170006F6E656E74735C647269766572735F6EA0
:1021800072665C7477695F6D61737465725C6E72A0
:10219000665F6472765F7477692E63002DE9F0479D
:1021A00006460C4617469846307900EB80001F49DA
:1021B00001EBC00595F8220010B10820BDE8F087BA
:1021C0001CB930791A4901EB00142F60C5F804805E
:1021D0000020A86085F8250085F8240021463046B7
:1021E00000F0F4FA40F20C611248226840F8221024
:1021F000626840F822103068D4E90012C0F808156F
:10220000C0F80C2500BFA168C0F8241500BF2868DD
:1022100030B13068FFF7FEFB8146217BFFF7CAFB38
:10222000012085F822000020C8E70000883F002038
:10223000348C000000070050FEB507460C461546DA
:102240001E46074A07CA8DE807008DF801408DF841
:102250000260019500226946384600F021F8FEBD73
:10226000448C00002DE9FE4307460C4615461E46E9
:10227000DDF8288000200090019002908DF8014048
:102280008DF802600195B8F1000F01D0202000E028
:10229000002002466946384600F002F8BDE8FE8399
:1022A0002DE9F04105460C4616464FF00008287906
:1022B00000EB8000124901EBC007386838B920787C
:1022C000022804D10FA140F2D220FEF7B9FD3868F0
:1022D00038B92078032804D10AA140F2D320FEF7B0
:1022E000AFFD06F0030010B10620BDE8F0813346D3
:1022F00022463846296800F037FC80464046F4E71D
:10230000883F0020636F6D706F6E656E74735C64E0
:102310007269766572735F6E72665C7477695F6D01
:1023200061737465725C6E72665F6472765F7477F7
:10233000692E6300F0B5DDE9054541EA420646EA4B
:10234000830646EA042646EA0547024E46F8207010
:10235000F0BD000000070050F0B5DDE9054541EA99
:10236000420646EA830646EA042646EA0547024E46
:1023700046F82070F0BD0000000700507CB505460F
:102380000C46002000902346024601460190284654
:10239000FFF7D0FF7CBD1CB504460020009003462B
:1023A0000122114601902046FFF7C4FF1CBD00002A
:1023B000074A52F8202022F44033054A42F82030E0
:1023C00052F8202042EA0143014A42F82030704787
:1023D0000007005001218140014A11607047000050
:1023E0000C050050014603480068C84000F0010099
:1023F000704700001005005001218140014A116022
:102400007047000008050050014601480844704725
:102410000060004038B504462046FFF7F5FF002174
:1024200001602046FFF7F0FF0068009000BF38BD54
:1024300010B504462046FFF7E7FF0068012800D1E9
:1024400010BD0020FCE70000014908607047000053
:10245000046300402DE9F0410446DDE907C7069E0C
:10246000099D89B9012E01D1012D0AD0022E0BD16F
:102470003DB1022D05D0042D03D0062D01D0082D2D
:1024800002D10020BDE8F081C4F8041540F22450C8
:102490000251001F0351001F0651C4F828C5001F38
:1024A000055127B94FF00008C4F8108506E040F246
:1024B000145007514FF00108C4F810850120E1E7DE
:1024C0000246505808B1012070470020FCE7002266
:1024D00042507047C0F8381570470122425070478B
:1024E000C0F84015704708B500224250425800928B
:1024F00000BF08BDC0F848137047C0F844137047C8
:10250000024650587047C0F808137047C0F80413CB
:1025100070470246D2F80403084070470122425037
:1025200070470246505808B1012070470020FCE770
:10253000002242507047C0F808137047C0F80413D7
:102540007047C0F8001270470122425070470000E7
:10255000014605484056012202EBE07008B1012017
:1025600070470020FCE70000F83F002001460448C7
:102570004056082801DB012070470020FCE70000DE
:10258000F83F0020014606484056002805DB044875
:102590004056082801DA012070470020FCE70000BF
:1025A000F83F0020FF2201490A547047F83F0020FD
:1025B00000BFEFF30580C0F3080141B900BFEFF39E
:1025C0001480024602F0010080F0010070470120F3
:1025D000FCE700001FB500F053F8144803C8CDE92C
:1025E00002011249083103C9CDE9000140F2471048
:1025F000ADF800000E4A694602A8FFF7CBFC0D4972
:10260000086000BF0846046834B100BF0AA24A212E
:102610002046FEF75EFB00BF00BF012102A8FFF7C6
:1026200073FD02A8FFF786FC1FBD0000208C000090
:10263000612600003C0000207265616C5F74696D6A
:10264000655F636C6F636B2E630000000248016876
:1026500002480068081A7047280000203000002057
:1026600010B5042808D10549D1E90041631C41F1A6
:102670000001024AC2E9003110BD0000280000201C
:1026800070B5FFF72DF9044600BF254635B100BFF0
:1026900005A235212846FEF71CFB00BF00BF002025
:1026A000FFF73EF970BD00007265616C5F74696D83
:1026B000655F636C6F636B2E630000000021034A4B
:1026C00011605160002002490880704730000020EE
:1026D00038000020014800887047000038000020C2
:1026E0000348D0E90010034AC2E900107047000017
:1026F000280000203000002002480088401C0149CA
:10270000088070473800002038B50020164908704E
:1027100016490870FFF792FA044600BF254635B106
:1027200000BF13A234212846FEF7D3FA00BF00BF32
:1027300012480068009003208DF80100104A694695
:102740000D20FFF7F1F9044600BF254635B100BF63
:1027500007A242212846FEF7BCFA00BF00BF0121B4
:102760000D20FFF75DF938BD400000204200002039
:102770007377697463682E6300000000308C00007A
:102780008527000070B504460D460E48007830B12C
:10279000012808D002280BD003280FD10DE001201A
:1027A000094908700BE0FFF79BFFFFF7A5FF06E064
:1027B000FFF796FFFFF7A0FF01E000E000BF00BFBA
:1027C00070BD0000400000204200002070B50646A9
:1027D0000C4640F20C612048226840F822106268E2
:1027E00040F822102068FFF707FE6068FFF704FE3C
:1027F00040F20D611848226840F82210626840F8E3
:1028000022100420FDF706FE002516E0606813493B
:102810000968C14001F0010111B105B970BD0EE0B8
:102820002068FFF7D7FD0420FDF7F4FD2068FFF7CF
:10283000E3FD0420FDF7EEFD6D1C092DE6DB00BF76
:102840006068FFF7C7FD0420FDF7E4FD6068FFF74F
:10285000D3FD00BFE2E70000000700501005005064
:102860002DE9F04106460F4615461C462078A84241
:102870001ADA00BFD6F81805C0B22178785420784B
:10288000401C20702178681E814204D1022130460C
:10289000FFF757FE04E02078A84201D1BDE8F0819F
:1028A00020213046FFF750FE00BFF7E72DE9FC413D
:1028B00004460E4617461D464FF000084FF482713D
:1028C0003046FFF735FE4FF492713046FFF730FE89
:1028D0004FF48E713046FFF72BFE4FF48471304673
:1028E000FFF726FE002084F8260084F82300012D3F
:1028F00004D102213046FFF724FE03E001213046D7
:10290000FFF71FFE20213046FFF71EFE0021304654
:10291000FFF71AFE206838B140F28620A060A16857
:102920003046FFF70BFE11E000BF00203B4604F1EC
:102930002602D11ECDE90050304600F02EF80028C6
:10294000F3D194F8230008B14FF003084046BDE8E6
:10295000FC812DE9F04105460E4617461C46DDF880
:1029600018802078B84208DA2178705CC5F81C0518
:1029700000BF2078401C20700DE0B8F1000F06D099
:102980001C212846FFF7E0FD0020BDE8F08114215E
:102990002846FFF7D9FD0120F7E72DE9F84F8146DA
:1029A0000C4615461F46DDE90A8A2078012802D028
:1029B0002878404501D1012600E00026207878B132
:1029C0004FF492714846FFF7B3FD4FF48E714846BD
:1029D000FFF7AEFD4FF484714846FFF7A9FD5DE0B7
:1029E0004FF492714846FFF79CFD58B14FF4927135
:1029F0004846FFF79DFD14214846FFF7A5FD01203D
:102A000020704BE04FF48E714846FFF78AFD10B3FB
:102A10004FF48E714846FFF78BFD4FF49271484694
:102A2000FFF77FFD58B14FF492714846FFF780FDE4
:102A300014214846FFF788FD012020702EE02B4628
:102A4000424639464846CDF800A0FFF782FF28BB32
:102A50000020BDE8F88F4FF484714846FFF761FD10
:102A6000E0B14FF484714846FFF762FD4FF4927174
:102A70004846FFF756FD58B14FF492714846FFF7AC
:102A800057FD14214846FFF75FFD0120207005E047
:102A90002B46424639464846FFF7E2FE66B14FF400
:102AA00082714846FFF73DFD30B14FF482714846D0
:102AB000FFF73EFD0020CCE70120CAE72DE9FC47E7
:102AC00004460F4615461E46DDF828804FF00009E3
:102AD0004FF482713846FFF72BFD4FF49271384660
:102AE000FFF726FD4FF48E713846FFF721FD4FF4B6
:102AF00084713846FFF71CFD00213846FFF721FDA1
:102B0000002084F8260084F8230020213846FFF7AF
:102B10001BFD08213846FFF717FD04F12603324656
:102B200029463846CDF80080FFF713FF206838B1FA
:102B300040F28620A060A1683846FFF7FFFC10E055
:102B400000BF2B4604F12602D11E3846CDE90068AD
:102B5000FFF723FF0028F4D194F8230008B14FF0C9
:102B600003094846BDE8FC872DE9F84304460F46B3
:102B700015461E464FF000084FF0FF313846FFF76C
:102B8000DAFC94F8240030B1A1683846FFF7D6FC8F
:102B90001120BDE8F88306F0040008B9012000E028
:102BA000002084F8240006F0080008B10620F0E7B1
:102BB000A66195E80700C4E90412E060A87884F8EB
:102BC00020006868E0616878C7F8880500BF287849
:102BD000012814D0287810B906F0200008B101208F
:102BE00000E0002084F8210094F821000090AB78E8
:102BF000394620466A68FFF761FF804609E00020F9
:102C000084F82100AB78394620466A68FFF74EFE0B
:102C10008046206810B9002084F824004046B8E7B8
:102C2000004000400000000004000000030000001D
:102C30000000680604000000F0F1F095964790222D
:102C40002324252627292A4B4C925148491D011D32
:102C500080FD01FD0027C000D404F403B2029E01F0
:102C6000D400E3FF10FFD1FECDFD82FDF8FCD0FCC7
:102C700003FD3BFDA3FC42FCB4FB0FFBD2F93BF888
:102C80008BF6E5F4C0F39FF388F702F6F6F446F905
:102C90007CFC9BFDFBFE3002360688087B0B740E25
:102CA0000E0ED20DA50E0B0EFC0BB60A3D085B07EF
:102CB0000B076805F4044B040602AA0219039401E9
:102CC00093013A02B20168019B01AF00B3008B008F
:102CD0007E003F0149019100F201D301D001B5020C
:102CE0000E034E033403150379033B031802F2016C
:102CF00077015800C7FFC2FEEFFC41FC8FFA0AF9CA
:102D00002CF804F78BF6ECF524F590F423F4E9F3B2
:102D100001F4D3F3D3F352F445F493F4E0F4E9F37C
:102D20002EF208F220F278F6FAF8E5F52AF974FEA8
:102D30005B0065013A0311075C0AA60C2110011122
:102D4000C00FE80F0F10E00DB30BE2082B066F0564
:102D50000D032D018D00E5FD19FC86FC71FB4CFB7C
:102D600066FC5BFC57FCEEFD81FE80FFE800040181
:102D70006C02E003D804A706310870086F09000B45
:102D8000990B8F0C5B0CC00B540CAE0B580A9F09AF
:102D90007B073F0572034E017BFF9EFD9DFA58F8AD
:102DA00091F6CBF46DF3EDF135F07AEF7CEEDAEDE0
:102DB00023EEE5ED2EEE80EEFAEE74EF8CF0F8EFF8
:102DC0008DEFB2F0FBF7ADFA25F844FD3B03950615
:102DD00066080E0B800FE2126B14B71889192D18B4
:102DE000BC1830184A159213BB0F880CC00AAC06E9
:102DF0005404AC0269FEAAFABAF9E8F5D9F305F46D
:102E000098F3B6F2C1F3F5F3D1F531F870F950FC4F
:102E1000D3FDB8FF8E041308DB08FA0ADD0CF70EA9
:102E20002711CA1107128612C511221204112F0E82
:102E3000E40B1F090106A0033900A2FC4BF9D2F5EF
:102E400017F3C9F0DBED6EEB92E918E7C1E5ADE4ED
:102E5000F0E326E371E3FCE329E591E475E5A2E6FE
:102E600009EFA2F444F136F7F5FFF204B0079C0B2A
:102E70003E116416CE17EC1C5620041FB41F5B20B5
:102E8000611DA91B2E19DD143513B50EFB0AE209CD
:102E90009005CAFF05FF48FA66F5CCF4CDF2F1EFD4
:102EA00082EF56EE25EE6CF033F1F1F23FF5BBF612
:102EB00078FAAFFE790060043608070A3A0D2F1041
:102EC0005411A213AD146F1443157A146C138812A5
:102ED000480F690C520AF806A903DEFFB5FB06F895
:102EE00037F406F19FED76E9A4E543E304E03DDE27
:102EF0006DDCD9DA90D987D8E0D77DDD01E89AE595
:102F00006EE7A7F087F8FBFC120164089F0F9D1283
:102F10009116991D791D0D1F3B20271F8B1DDA1C53
:102F2000081A6D193417D712DA117E0E9508A20609
:102F30004804AEFDDDFB70F955F6D1F3AAF241F17C
:102F4000ECF1F7F19DF27CF43EF5C4F78DFBBDFC8E
:102F500009FEED009B028205D6078408A20AC30C75
:102F6000960DF50F5D10910F9E0F3A0F070D0F0C88
:102F7000CF095708A305F5021B0047FEBFFA86F8E4
:102F800058F4DBF19AEE8AEAA5E721E4C0E12AD8F9
:102F900010CE7FD37BF02EF1C8EDDCF482FDD6FDA0
:102FA000D0042806090395054201380C230F81122D
:102FB000E311001612151F1A3E1B7D197717BC125C
:102FC0005C11EC129F0EB606D60466FE2EFFEB00D7
:102FD000430274FCE3FCF2FDF002F904FF017AFF06
:102FE000EFFC8BFED505E707F4FFE2FC8CFD070242
:102FF0007A04960241FE7400A503E707F806B400C0
:1030000093FD08FEC7FFFDFDADFA2AF621F892F701
:10301000ABF96CF72BF49DEF2EEDE0EA9EEA67E743
:1030200061E3D6E126E09ADA5EE76319FC10DC0181
:1030300061FD780760FF03FB95F85CE985FE7FFE84
:103040009C10F2088B058F01FB0D8E1110075202A8
:103050005CF7D407E20A0B12040974043A00590D14
:1030600084102D07190414004E07620E0414A106E3
:10307000F301CD004208DD085D0250FE78FE010834
:10308000FC0A090BCD056307A409640DAF09830190
:103090001001C8031B070106B9038EFE7EFFB9FAB3
:1030A0000EF5C1EE49EEDFEEB5F211ECE4E346DFDA
:1030B00026E304E4AEDCC1D9EBD775D6B5E92A31F5
:1030C000AE180000B5F6890BCF02D5F7E2F8F5E3AC
:1030D00013176A10C725140E510D5D06B9198B1A06
:1030E0002CFE92FECFF54A1671110414DFFB74FE1C
:1030F00016FC0D0AF9042FF6BBF79300CD0F900FC5
:10310000680E70FDEAFFB701CC04B9FDF8FB98FF2B
:103110000A09A9109B0C2B08D5073C0CE70C0507E6
:103120008A012401D00AC00E100F7E0DD30D120C9F
:103130003207F7FDA0F535F348F5A4F61DF571EA61
:1031400041E462E33DDE97D6D4D31DD3F0CE69CB04
:103150005DF1E7354E0E9BF576E91CFDE1E8B3E93C
:103160004EE650E0C01A8B0CEE25A6065F0DC0FDA2
:10317000C41D1C123DFE0306DAFF9C256219F21DD8
:1031800072FD4B0CA2FE5910C90490F97701790A1F
:10319000C7155E0C080E64F40FFCF7F6D5FC88F634
:1031A0002FFB7F01190DBE10AE065DFF77FD720784
:1031B000B20535054F008F053B096F10A40C280B95
:1031C000B0080B07FE0246FE37FAC8F77EFC23FD67
:1031D00052FD19F28CEF11E698E332DBF7DBFED6F5
:1031E000B8DBBFD39A1C4F3E54027CF18FE423F42A
:1031F0001CDC39F822DF4403C1188D106F15DCFA8E
:10320000CBF753EFBA165EF2330234F7D00A9E1CA6
:10321000D212D605EEF94FFF5BFAE814FA007309F3
:1032200047103720001DE01A050B37FED4FEE8FAE0
:103230003605D805FB0AC01009176D0DF6040AF90A
:10324000C5F874FFA1040E088A07A0044F07630B9A
:103250006C0882026BFD88F9C8F9FFF8BDF383F2B0
:103260001FF3C5F22DF896EBD2E102DAA7DAE1D42A
:10327000ABD9DAD7EB12044F7315D3FEFAE950F34A
:103280004CE4EAFACBF21AFD54212312BD1F7B0352
:103290006BF5C8EA240DC5FEA3090A01C901BA12DB
:1032A000950BF209EDF31AF2E8DD3EFAF5FAE600C5
:1032B000AD07B50E9B0D690E470AC3FBC2FB86F333
:1032C000BE005B0FAD1C3F191722CB195012530AD9
:1032D000C701AE01F609EB111B114513E7099F0762
:1032E0000603C50270026B002AF606F3CFEED9EE94
:1032F000F0EBADEA71E892E88DE24CD95CCD53C6B3
:1033000025CB1AF87046C61BF1FCBBE13DE9E5E7A9
:1033100021ED5104D2EFF61FE10FFD19430BB2F678
:10332000CDF2E5014A0FC608A713220C5E18090A60
:103330005C0581FD1202EDF3F2FAF9FFD200A01153
:1033400025144F1294027D011DFBDFFC33F580F143
:103350005DF84805D60EE112320A8800F200260315
:10336000E8041B08CD0BEA0DC80F290A28068B05B7
:10337000CE036D07C90ED40D66075DF759F051EC09
:1033800053F2F1EAD3ECB0E4FDDE75D967DA34D656
:103390004E139D435E0E9D01B2D9BDE69CD887FEBB
:1033A0004B05D80DCB2507FC871251EEB5EB98E302
:1033B000A5FD1904940AC411D00999167C016BFB70
:1033C00098F5CFF074EE0403A608820DE0142816D9
:1033D000C30DAD0A470322FCE3FDEEFE380AE716F3
:1033E0000F19CE145310D4054FFF61FB8502860BD5
:1033F000A015C013200EED0287FAFFF2C0F114F4FD
:10340000DBFA97076A07DA03CEF6FBECB0E457E382
:10341000C7DD1EE23AE1EEE293DCB4DA50D87A2658
:10342000254BFC165BFD38D105EBB0E27A14C90BD5
:10343000E21C682B470BB026F3F1C9F49BDF85072C
:10344000D108B013931730093B1498F6CD0100EF63
:10345000F2ED4BE3D2F759FACC004C0A1D06870176
:1034600009F51BF911EEE7F335F8830974102A13F7
:10347000EA0E6D06AB018AF951F9E007211AAC207A
:1034800074255A1B470E8C07FA0203010600DB065F
:10349000E712761AD6104EFFCEEFAEE6E1E3DFDF9D
:1034A00058DED3D401D79CCABBCDB3C8EA19D72CF8
:1034B0005B07B3F4D2CD91E04BCCDE1247FEFF2583
:1034C00095196B045A16E2F1D2045FF01323AA0A8D
:1034D000B12B7220B925D71E8B047F08C7004F0D72
:1034E000B6FE0615F00473145213F90F87FA56EE60
:1034F00064ECCDEC76F2BEEF49FA2CFE4D09A6FE47
:1035000081EF09DBC8D6D3E21EFA700CEC0D8214F1
:10351000160F9C08C301BAFC52FA0D038814DC256F
:103520003C2B0D21F013B3050A00E6FCBAF726F197
:1035300083EE87EF1FEFC9DE74D171D610305728A4
:10354000E50812DC23CEECDCC0E4A11490E9FE0F08
:10355000E6E4FAFB6DF344ECD4E424E742111E0ADE
:10356000D72A2109D01753FC6F095508F3137F0C94
:10357000A512E224CB247330EF252D1CC7005F0475
:10358000BDFA91021305500F8A0D4D11A50276F276
:103590006DE254D552DA1DE872F856FACEFFCAF43D
:1035A00096F2EAE864E7DDE42AEEB0F91B0F182092
:1035B0005E1BAB0BB1FAA9FA78FCCC014CFFB40648
:1035C000EB04B3041BF8F6ED5BE15CDF0AE0172DBA
:1035D000943B06185E01C8EEE6FC5FE8BE088BE18E
:1035E000B80699F96E035D0DB1F72AEF66E45B0B3F
:1035F000F0F95811E1EFABFA85FAF5053609DF0C61
:1036000002FFE6F98E12B2157D1C5D11D911A409D5
:10361000D3177F1116134B086D05D005530C070601
:1036200041FD12FCBDFA92FDEDF956F618F261F873
:103630004DF70CF516EBCEE676F30F02AF11800EC8
:1036400045030BF700F6C0F3B9EEFBF645FEEA0AB8
:103650003F023CFA4BE293E2AEDC8AE6FADFF6E2A6
:1036600076E2E231DF51F624FF05BCD966ECE7D201
:10367000C710CDFA8523D51822140D1D210538FF5A
:103680007DE51D1244FC381A1C05861B9613821515
:10369000DA0201FBA2F416EB1F02CF02D911870F49
:1036A000671BF1091C1018FB92EE9ADD27E8F1F96F
:1036B00055116A1E9914F20949F409EBC0E438F275
:1036C00066F8DCFFC70577095E076305BB00DDFF11
:1036D0007C0195FF0DFDA1F743FC3DFCFC03AA0016
:1036E000A100C9F3F0E4B0DAA8DA31DF26E3DEE9BD
:1036F000F8F1B9EFF2FBC23D8412C3FE07D6E6F241
:10370000FAF1B8053F151AFDB32CBB07D6211FFAF5
:10371000B2057AEA84118322BE202E20D1069D159F
:1037200092088A1522F792FD30E7930291147324D0
:1037300075190E0F1E0030F651F703E935E8C0E5A4
:10374000CFFCEC0E5315ED0596FA0BEC75E4C2E0D8
:10375000E1EE4FF3DD05FD08040DDE0704FED0F5B4
:103760004BF85D023102D00CA209B2083A0009FF01
:1037700060F5C2F74DF68BF6DBEC9EE88BE23BF58D
:10378000AEF56EF090E277DA36D2E40CCD3C51160D
:10379000D204F6EBBE09DBEA0E0AE8EF70087517F3
:1037A0007813DC1C0B0FB11802045E236D018D062B
:1037B0005FF9781465139A145FFF39FE7607A30545
:1037C000131172078CFF9EF38009CE02080B64FC74
:1037D00071FC14ED9EF881F587F55BFBB0FC0EFEE5
:1037E000FBF563F3B5EB2CF5CDF63001FF028B074B
:1037F000F20342057908B60F9309EB041902840419
:103800008DFCC8FB83F52FF30BFAA3FF53FCCDEE21
:10381000B1E4ADDE54E366DDB7E41AE321EBCDF7A6
:103820009E3FE628190283E168F83BFE75F8A11176
:10383000D4FBC128C61A752C3514D9130EFEAB0F54
:10384000F516FB07B302DB04B019BC0F561177FD68
:103850004C0466F5E50071FA55FE7EF46D03BB0776
:10386000920049F91CF00CEC93E97FEF55F86209DE
:10387000030295F808EC1AEE98EB59F8D5FE92067B
:103880009F0DC4130C1039020E0003049111131381
:10389000D30EC4045AFC2EFAF3FA8E030606B604BD
:1038A0005CF7BFE9D5DFC4E5FFE203ED50F06BEF55
:1038B0008BE7B0E8A0DF87125F2B06F80CF7590002
:1038C000CC1960F33207DBF6D90C7620FA1676199C
:1038D000B613461B680D4D1A95025004DC08E21918
:1038E000F00A2107BA0160090F0A90017CF942F53C
:1038F0009AF7B4F74DFE92F4E4F1B9F6DAFDA6F4C6
:10390000BDF5B7EA00E8D7E3CFEF70F7D5005AFE70
:103910000201070CD706E40416FE77011004091310
:10392000D914230E3909FC041A0C440D390460FB28
:103930006707BE07770817F946ED82F5FBFC7702AB
:1039400004F62BE705DA5DE72AED56EB9AE5EA1176
:10395000190A24FFC30E6F16DFFB8ED612FAE1019F
:10396000341AE90C94FD210E8422F922BC11EE08D0
:1039700029FF2B056813FC021BF92DFFAB0CFF116F
:10398000BA055DF92DF5E5FCB3F83CFA19F64BF9EB
:10399000ECFC6D0211F605F355F4F9F322F957FD2D
:1039A00039F6CCF448FECB01C50908087306D8FFE8
:1039B000A00481FC40FAA201C403540A850F560EEC
:1039C0006406C002DA004F06C80C2D01550335030A
:1039D0001603CC05CAFC37F66EF14FF656ED71ECC6
:1039E000B0E016E568E35C10611C6DFFCD0885153D
:1039F000151113DD97ECC0FAF0024D08D4FFDB0C73
:103A0000D826051C110767FFFEFC09F863FC6B0054
:103A10001DFA0603E8FEC1FF05018E02DCFA55F42B
:103A20000CF1FBFAB8FF68FD2FF8190467066E0663
:103A300081FF5BF9BEFB5F0063033C04B00EAB0D7E
:103A40009C0D79019F04A60353FD62F7E5FA520627
:103A5000F20A2008FDFD61032C09A0081E062FFFB5
:103A600017003004C208D4FF0AFB96F6A0FE6C08CB
:103A7000ED08C4F41AE4A0E05EE656EDC9ECEFED03
:103A8000C3FFE6255E0139F9330C410D8EEB2EF2B2
:103A90002F0D26FDE0FE8105EB131C1D290D48EDC1
:103AA00002FA020458F8E2F237FA60FF7F03680175
:103AB0000CF9E6F2CAF3E4EDD3F66A0229FEE1FC62
:103AC0001AFD9A05B40D990C62007E03F3041E01E1
:103AD00001013609E90CF307620DE10F2C0E7EFEA1
:103AE00002F7BA00E10B4F165112660E310E171095
:103AF000E505C1FDAEF9BDF8FD02E0063109D202CF
:103B00004503CE0466044CF942E93BE9ECEB0AF0CC
:103B100061EC15EF90EF41F51FED91F15DEDB4FD16
:103B20006E00DBE4F4005D0DF304F6F029121615C7
:103B3000A9F618FAC0058E0B0D07CEFE1703A213C7
:103B40005C034FF688FE49062FFB79F9D9FF5E0129
:103B5000DEFA0BF67CFC38079F04810026044B023A
:103B600054FD9BFD5EFF33027A06C3058101B2FD61
:103B700015F807FE5907730BDB1246111B0E2111B6
:103B800085132809870872096E08680A1810810BC6
:103B90005B0797088A0054066F0CF30466F821F45B
:103BA00055F2F0F56FFA61F0A9EF0DF4F9FCB6F8F3
:103BB0002AECF0E159E1CDE15CDCD8DC08DF68F803
:103BC000C9F4B5F590052005B3F5FCFFF511DAFD54
:103BD0006BF5770D0F15FA0D1211BD0ECA134608BD
:103BE000A002A00ADF0AF703A50D1F18480F4BFB20
:103BF00013F4D1F9A0FD32FB42FC76FD57F546F1F6
:103C000044FC6A0216F93AFB2400A905D002A0FD83
:103C100068FCB204410D3F0DA113C414D00D9F0ADE
:103C20009C0A2D0829074A0F140FDB0C240B70097E
:103C3000DF05F30215FFC804540A3F0B390CBF0619
:103C4000D3FDF6F3A1F0B5EA7AEC47EABBEEDCEB84
:103C500042E9EEE2C6E469E58EE11DDB58DA6AD797
:103C600019EB52F7EEE487FA480782045D01590F19
:103C7000EE02BA02C41A2F26811C5D1B8317EE12B6
:103C80000311D7059F0D1210390E9A0B951180055F
:103C900078FE53F71DFAE7F818EF21EF46F528FDF7
:103CA000A4FD630149FE3DFE1EFC38FFA0074F0442
:103CB00043FC43FD1F06D406C7041503AE02CA0722
:103CC0006F03970073049007EA056B0B6A16691877
:103CD000EB13490DAD0DE109420209FA07FBB600ED
:103CE00014043502A2FA75F8CAF799F783F002EBCB
:103CF00069E4F0E93DED5DEFBAEB1DE277D947DC11
:103D0000A5D9F5DBCFE22AED270A85004507520841
:103D10002C0780059C108512CE07EF19FC20F81D9A
:103D2000AF16B013720E680F530634FFDEF8F3F9C6
:103D300044059C10880DCC041CFF14FD2B0231FDA2
:103D40007FFBA7FB59F88DF653FC34008FF9B6F7CB
:103D500022F945FD5605F1030E05A40335FCF7F9DC
:103D6000F4FF720527058708D00922079902B506D6
:103D700010100912750EA10C9E0A5E07B0076802AA
:103D80003CFEC0FAB4FBDDFA96FBA0FBE5F54DF373
:103D900069F5C1FA38F6FEF07CEE6AF01DF6DBF943
:103DA0002EF938F45AEF72EA76EFADF215F056EECE
:103DB000ECF66502EBF41CF5D8FABA019108960E00
:103DC000C60E59FF2F09C70CF90C2E0AF304A60AD8
:103DD0000C149B1A180D1D044C004F05F70BB10D68
:103DE000AD0896039D03C0046705A1FB15F92AF4ED
:103DF0004FF850FBB8FF71FD26FAEDFB1CFC940058
:103E000053FE7002ED03A00A2D08BE0353FE3CFFD3
:103E1000A1FFF3003605D608860E350609032602F3
:103E2000C80431001CFD7EFCC7FA89FF4E018608DC
:103E3000530AFC070F05DA02ECFF62FB02021102D3
:103E40006909ED068E013AF666ED96EC9CEF42F5B7
:103E5000BDF000F19AE995EB99E888EB4EE131EB82
:103E6000CAED31F32D03C6FC86FF89FD1E07000451
:103E7000570BC010881157119F0E990DA70B030DFA
:103E8000F40B100F8D11790E560AC8065908010956
:103E90006B0243FF1EFFC403B5016204410023FD12
:103EA00085FBB2F9FCFD5CFE76FCD0FB85FDC9FA12
:103EB000C9FC8EFD24FABCF6F5F797F87CFC51FCA2
:103EC00003F923FCD803BF080708A60636038B08AE
:103ED000E60740056F040D058909EA0E0713A80DD2
:103EE000120A1206DB052A069C0287F94EFA8EFD9D
:103EF0003DFA21F7E8EEC7EF28F291F210EFA1E9C1
:103F0000A5E75DEC93ED66ED51E660E560E82DF523
:103F1000CDFAF4F0A3F2A3F523056E0F6818760F1F
:103F2000540E5412E711E6159E142F15CB12891862
:103F3000291E3C1E8314740D9D0BAB09CD089D01F9
:103F400050F9DAFBBFFCD5FEC5FF12FAAFF5BBF2A4
:103F500046EF9BF0F4F0DFECA2EF3DF742FD48FCAA
:103F60003EF817F2BEEFF4F0C7F472FB5DFFED010F
:103F700078030D050B040C03FD008A014E05400873
:103F8000F30E0A134F12E30FB60B280C800DE30A51
:103F9000310A0C0497FF9CFFE6057005FC01BBFF8E
:103FA0003BFDFCF8ACF0CDEA62E9F1EF17F46BF6FB
:103FB000C6F1C1ECAEE800E9FFEC2BF045F270F27F
:103FC00016F90802280047027102AF06F80B2F11FC
:103FD000971417114B141816321CBA195C16FA0CE8
:103FE00006095B0AAD0A8E0A17098505EB00BD00BC
:103FF00095FB1AF6E8F182F2E0EE94EC84EDAAEC7F
:104000007BED45EB97EAAFED0EF060F218F2B2F3FC
:10401000B8F23CF8D3F747FC0D0052FC16018505B9
:104020001D0A3E08A80C270B3D0EE60FDA0E011103
:1040300049117610691058146A13AE108A0A67097C
:104040001C08710373FD62FD7FFC19FC2AFFAF029F
:1040500031042A0266FED4FA34FEDAF731F6DDF8CE
:1040600081FA6DFC5EFDF0FDAFF943FA36F68AF495
:104070002DF26DEF4AF082F7E3FD6100B9FF8DF894
:104080006BF33FF574FE9403A7049E06D8087707E8
:104090003C068C04360138FD7E0068049904230335
:1040A00021FFE8FB38FB41F8EFF5D1F5FDF238F7D9
:1040B00064F914F868FA24FD2AFD4FFD05FC19F790
:1040C0003FF465F9B3FFED054C0800063D04C60159
:1040D000DEFF43028F0785071B0A4E0A7D09080A87
:1040E000B809FD0C2C115B133B0F050F3809A70312
:1040F0007B024B04A708DA0A900C2C07C606720252
:10410000BB015C01AF00F9FEEFFEE0029302880004
:104110001DF98CF893F8A3FD45FEBBFBDBF654F1CB
:10412000CFEE5EEFABF440F428F39DF0BDF0B7EDB9
:1041300018EBD4E8C1EA62EF4DF40BF419F257F62C
:104140000BFDC5031B03C4036F081E0D930EF50F73
:10415000490FA013FD16E814E40D23075005DB04F6
:104160009E055B05A6008CFE43FE56F9FCF8EEF5B5
:10417000EBF150EF55F1F0F5E7F928FA45F777F94B
:1041800042FDABFC85FF2306240A770D6B0E0C0D58
:10419000670F30139612B5155A16390FB109C408B6
:1041A000980AF20B1F0AE6050E0132FF2AFB92F76E
:1041B00097F6BEF4D6F368F74AF94DF87DF537F374
:1041C0002BF6E7FBB1FC12FA5DF986F819FC06FF45
:1041D00068035A0029FF61FE4B002C035300ADFF1A
:1041E000D9FFC1069D080605BFFC64F8B6F80BFEB2
:1041F000CE01DCFED9FBC2FBE3FB79F9D5F5C7F2B2
:104200001AF7CDFC00010FFFD2F90EF60DF9870069
:10421000C503AB034C023A0110031B07E207B705C5
:104220009F06EE070F0A950CAD097D049003550714
:1042300045066404CB023602E50255FF53FC0CFC34
:104240002BFDA0FFB60058FDCAFBE9FB72FAB6FCD5
:1042500091FDD3FAF0FA4DFCE6FBC4F9EFF8F9F85A
:1042600010FAF3FAC9FC22FDA8FD98FD71001206B0
:10427000C606190645058908990809078204C2017E
:10428000E6017E05390B7F0C5509BA06BB07F90913
:10429000CC0AFB081C0B1C0B2407E101A4FE40FE0A
:1042A00081FE2401A8FF7CFC75F714F349F032F17C
:1042B000F7F4FFF332F430F348F6B9F665F69AF600
:1042C00004F4F6F023F167F8F3F922FD8A00A5065D
:1042D000BB093507C1026F012B05650518050206EC
:1042E000F207A006F705F001DEFD90FC0FFDC3FE0E
:1042F00001FEF0FB93FA0EFB6CFB75FB5AFB27FAF1
:104300001EF8C6F740F732F88BF869FD9F01B1013E
:10431000A00151024E05A604B805F3065A09AC0BDC
:10432000E20E050F490E330D200C9C0F330EB5081D
:1043300046031B05600AF20CC90A3506EDFF14FEA0
:10434000D3FCE8FA66FBFBFAF3FE2405B2061B0673
:10435000E20307FF20FE00FC94FC27FE90013303DC
:10436000460182016CFF08FDD2FA1DFAC6F5CAF4B7
:1043700071F6F2F894FA19FCCCFABBF79EF754F7F1
:104380008AF9F3F81BFB8FFB5CFBBCFD0E0011FDF3
:1043900059FA65F9BAF94FFBFCFC55FE9EFD65FF25
:1043A00072001C01DFFD14FDD1FADEFCFCFFE1010F
:1043B0008C0184FD7CFD66FCA6FD0CFF7E010301E3
:1043C00041FEDAFCD0FBF1FBB0004906CD09300C10
:1043D0004D0A530A310AA309810C4910E9126114EC
:1043E000D31339127C0D6A0737060807CD089503E9
:1043F0009CFE07FC4AFCBCFB45F95DF708F57DF91E
:1044000048FA38F8C8F3A4F5DAFB7E00F6FF8FFD12
:1044100078FE51FF1F022403810682060D079807CC
:104420001A03AF00B300D0015102D80130000302DB
:10443000FC015EFE81FC50F96CF529F819FF7EFF46
:1044400025FECBF8FAF2F0F463F700F4A7F3EAF3F1
:104450001CF605FBF8FAFBF418F0B0EF49EFEEF5A7
:1044600020F9ABF9EEFBC7FDD404F403B2029E01C0
:10447000D400E3FF10FFD1FECDFD82FDF8FCD0FC9F
:1044800003FD3BFDA3FC42FCB4FB0FFBD2F93BF860
:104490008BF6E5F4C0F39FF388F702F6F6F446F9DD
:1044A0007CFC9BFDFBFE3002360688087B0B740EFD
:1044B0000E0ED20DA50E0B0EFC0BB60A3D085B07C7
:1044C0000B076805F4044B040602AA0219039401C1
:1044D00093013A02B20168019B01AF00B3008B0067
:1044E0007E003F0149019100F201D301D001B502E4
:1044F0000E034E033403150379033B031802F20144
:1045000077015800C7FFC2FEEFFC41FC8FFA0AF9A1
:104510002CF804F78BF6ECF524F590F423F4E9F38A
:1045200001F4D3F3D3F352F445F493F4E0F4E9F354
:104530002EF208F220F278F6FAF8E5F52AF974FE80
:104540005B0065013A0311075C0AA60C21100111FA
:10455000C00FE80F0F10E00DB30BE2082B066F053C
:104560000D032D018D00E5FD19FC86FC71FB4CFB54
:1045700066FC5BFC57FCEEFD81FE80FFE800040159
:104580006C02E003D804A706310870086F09000B1D
:10459000990B8F0C5B0CC00B540CAE0B580A9F0987
:1045A0007B073F0572034E017BFF9EFD9DFA58F885
:1045B00091F6CBF46DF3EDF135F07AEF7CEEDAEDB8
:1045C00023EEE5ED2EEE80EEFAEE74EF8CF0F8EFD0
:1045D0008DEFB2F0FBF7ADFA25F844FD3B039506ED
:1045E00066080E0B800FE2126B14B71889192D188C
:1045F000BC1830184A159213BB0F880CC00AAC06C1
:104600005404AC0269FEAAFABAF9E8F5D9F305F444
:1046100098F3B6F2C1F3F5F3D1F531F870F950FC27
:10462000D3FDB8FF8E041308DB08FA0ADD0CF70E81
:104630002711CA1107128612C511221204112F0E5A
:10464000E40B1F090106A0033900A2FC4BF9D2F5C7
:1046500017F3C9F0DBED6EEB92E918E7C1E5ADE4C5
:10466000F0E326E371E3FCE329E591E475E5A2E6D6
:1046700009EFA2F444F136F7F5FFF204B0079C0B02
:104680003E116416CE17EC1C5620041FB41F5B208D
:10469000611DA91B2E19DD143513B50EFB0AE209A5
:1046A0009005CAFF05FF48FA66F5CCF4CDF2F1EFAC
:1046B00082EF56EE25EE6CF033F1F1F23FF5BBF6EA
:1046C00078FAAFFE790060043608070A3A0D2F1019
:1046D0005411A213AD146F1443157A146C1388127D
:1046E000480F690C520AF806A903DEFFB5FB06F86D
:1046F00037F406F19FED76E9A4E543E304E03DDEFF
:104700006DDCD9DA90D987D8E0D77DDD01E89AE56C
:104710006EE7A7F087F8FBFC120164089F0F9D125B
:104720009116991D791D0D1F3B20271F8B1DDA1C2B
:10473000081A6D193417D712DA117E0E9508A206E1
:104740004804AEFDDDFB70F955F6D1F3AAF241F154
:10475000ECF1F7F19DF27CF43EF5C4F78DFBBDFC66
:1047600009FEED009B028205D6078408A20AC30C4D
:10477000960DF50F5D10910F9E0F3A0F070D0F0C60
:10478000CF095708A305F5021B0047FEBFFA86F8BC
:1047900058F4DBF19AEE8AEAA5E721E4C0E12AD8D1
:1047A00010CE7FD37BF02EF1C8EDDCF482FDD6FD78
:1047B000D0042806090395054201380C230F811205
:1047C000E311001612151F1A3E1B7D197717BC1234
:1047D0005C11EC129F0EB606D60466FE2EFFEB00AF
:1047E000430274FCE3FCF2FDF002F904FF017AFFDE
:1047F000EFFC8BFED505E707F4FFE2FC8CFD07021A
:104800007A04960241FE7400A503E707F806B40097
:1048100093FD08FEC7FFFDFDADFA2AF621F892F7D9
:10482000ABF96CF72BF49DEF2EEDE0EA9EEA67E71B
:1048300061E3D6E126E09ADA5EE76319FC10DC0159
:1048400061FD780760FF03FB95F85CE985FE7FFE5C
:104850009C10F2088B058F01FB0D8E111007520280
:104860005CF7D407E20A0B12040974043A00590DEC
:1048700084102D07190414004E07620E0414A106BB
:10488000F301CD004208DD085D0250FE78FE01080C
:10489000FC0A090BCD056307A409640DAF09830168
:1048A0001001C8031B070106B9038EFE7EFFB9FA8B
:1048B0000EF5C1EE49EEDFEEB5F211ECE4E346DFB2
:1048C00026E304E4AEDCC1D9EBD775D6B5E92A31CD
:1048D000AE180000B5F6890BCF02D5F7E2F8F5E384
:1048E00013176A10C725140E510D5D06B9198B1ADE
:1048F0002CFE92FECFF54A1671110414DFFB74FEF4
:1049000016FC0D0AF9042FF6BBF79300CD0F900F9C
:10491000680E70FDEAFFB701CC04B9FDF8FB98FF03
:104920000A09A9109B0C2B08D5073C0CE70C0507BE
:104930008A012401D00AC00E100F7E0DD30D120C77
:104940003207F7FDA0F535F348F5A4F61DF571EA39
:1049500041E462E33DDE97D6D4D31DD3F0CE69CBDC
:104960005DF1E7354E0E9BF576E91CFDE1E8B3E914
:104970004EE650E0C01A8B0CEE25A6065F0DC0FD7A
:10498000C41D1C123DFE0306DAFF9C256219F21DB0
:1049900072FD4B0CA2FE5910C90490F97701790AF7
:1049A000C7155E0C080E64F40FFCF7F6D5FC88F60C
:1049B0002FFB7F01190DBE10AE065DFF77FD72075C
:1049C000B20535054F008F053B096F10A40C280B6D
:1049D000B0080B07FE0246FE37FAC8F77EFC23FD3F
:1049E00052FD19F28CEF11E698E332DBF7DBFED6CD
:1049F000B8DBBFD39A1C4F3E54027CF18FE423F402
:104A00001CDC39F822DF4403C1188D106F15DCFA65
:104A1000CBF753EFBA165EF2330234F7D00A9E1C7E
:104A2000D212D605EEF94FFF5BFAE814FA007309CB
:104A300047103720001DE01A050B37FED4FEE8FAB8
:104A40003605D805FB0AC01009176D0DF6040AF9E2
:104A5000C5F874FFA1040E088A07A0044F07630B72
:104A60006C0882026BFD88F9C8F9FFF8BDF383F288
:104A70001FF3C5F22DF896EBD2E102DAA7DAE1D402
:104A8000ABD9DAD7EB12044F7315D3FEFAE950F322
:104A90004CE4EAFACBF21AFD54212312BD1F7B032A
:104AA0006BF5C8EA240DC5FEA3090A01C901BA12B3
:104AB000950BF209EDF31AF2E8DD3EFAF5FAE6009D
:104AC000AD07B50E9B0D690E470AC3FBC2FB86F30B
:104AD000BE005B0FAD1C3F191722CB195012530AB1
:104AE000C701AE01F609EB111B114513E7099F073A
:104AF0000603C50270026B002AF606F3CFEED9EE6C
:104B0000F0EBADEA71E892E88DE24CD95CCD53C68A
:104B100025CB1AF87046C61BF1FCBBE13DE9E5E781
:104B200021ED5104D2EFF61FE10FFD19430BB2F650
:104B3000CDF2E5014A0FC608A713220C5E18090A38
:104B40005C0581FD1202EDF3F2FAF9FFD200A0112B
:104B500025144F1294027D011DFBDFFC33F580F11B
:104B60005DF84805D60EE112320A8800F2002603ED
:104B7000E8041B08CD0BEA0DC80F290A28068B058F
:104B8000CE036D07C90ED40D66075DF759F051ECE1
:104B900053F2F1EAD3ECB0E4FDDE75D967DA34D62E
:104BA0004E139D435E0E9D01B2D9BDE69CD887FE93
:104BB0004B05D80DCB2507FC871251EEB5EB98E3DA
:104BC000A5FD1904940AC411D00999167C016BFB48
:104BD00098F5CFF074EE0403A608820DE0142816B1
:104BE000C30DAD0A470322FCE3FDEEFE380AE716CB
:104BF0000F19CE145310D4054FFF61FB8502860BAD
:104C0000A015C013200EED0287FAFFF2C0F114F4D4
:104C1000DBFA97076A07DA03CEF6FBECB0E457E35A
:104C2000C7DD1EE23AE1EEE293DCB4DA50D87A2630
:104C3000254BFC165BFD38D105EBB0E27A14C90BAD
:104C4000E21C682B470BB026F3F1C9F49BDF850704
:104C5000D108B013931730093B1498F6CD0100EF3B
:104C6000F2ED4BE3D2F759FACC004C0A1D0687014E
:104C700009F51BF911EEE7F335F8830974102A13CF
:104C8000EA0E6D06AB018AF951F9E007211AAC2052
:104C900074255A1B470E8C07FA0203010600DB0637
:104CA000E712761AD6104EFFCEEFAEE6E1E3DFDF75
:104CB00058DED3D401D79CCABBCDB3C8EA19D72CD0
:104CC0005B07B3F4D2CD91E04BCCDE1247FEFF255B
:104CD00095196B045A16E2F1D2045FF01323AA0A65
:104CE000B12B7220B925D71E8B047F08C7004F0D4A
:104CF000B6FE0615F00473145213F90F87FA56EE38
:104D000064ECCDEC76F2BEEF49FA2CFE4D09A6FE1E
:104D100081EF09DBC8D6D3E21EFA700CEC0D8214C9
:104D2000160F9C08C301BAFC52FA0D038814DC2547
:104D30003C2B0D21F013B3050A00E6FCBAF726F16F
:104D400083EE87EF1FEFC9DE74D171D6103057287C
:104D5000E50812DC23CEECDCC0E4A11490E9FE0FE0
:104D6000E6E4FAFB6DF344ECD4E424E742111E0AB6
:104D7000D72A2109D01753FC6F095508F3137F0C6C
:104D8000A512E224CB247330EF252D1CC7005F044D
:104D9000BDFA91021305500F8A0D4D11A50276F24E
:104DA0006DE254D552DA1DE872F856FACEFFCAF415
:104DB00096F2EAE864E7DDE42AEEB0F91B0F18206A
:104DC0005E1BAB0BB1FAA9FA78FCCC014CFFB40620
:104DD000EB04B3041BF8F6ED5BE15CDF0AE0172D92
:104DE000943B06185E01C8EEE6FC5FE8BE088BE166
:104DF000B80699F96E035D0DB1F72AEF66E45B0B17
:104E0000F0F95811E1EFABFA85FAF5053609DF0C38
:104E100002FFE6F98E12B2157D1C5D11D911A409AD
:104E2000D3177F1116134B086D05D005530C0706D9
:104E300041FD12FCBDFA92FDEDF956F618F261F84B
:104E40004DF70CF516EBCEE676F30F02AF11800EA0
:104E500045030BF700F6C0F3B9EEFBF645FEEA0A90
:104E60003F023CFA4BE293E2AEDC8AE6FADFF6E27E
:104E700076E2E231DF51F624FF05BCD966ECE7D2D9
:104E8000C710CDFA8523D51822140D1D210538FF32
:104E90007DE51D1244FC381A1C05861B96138215ED
:104EA000DA0201FBA2F416EB1F02CF02D911870F21
:104EB000671BF1091C1018FB92EE9ADD27E8F1F947
:104EC00055116A1E9914F20949F409EBC0E438F24D
:104ED00066F8DCFFC70577095E076305BB00DDFFE9
:104EE0007C0195FF0DFDA1F743FC3DFCFC03AA00EE
:104EF000A100C9F3F0E4B0DAA8DA31DF26E3DEE995
:104F0000F8F1B9EFF2FBC23D8412C3FE07D6E6F218
:104F1000FAF1B8053F151AFDB32CBB07D6211FFACD
:104F2000B2057AEA84118322BE202E20D1069D1577
:104F300092088A1522F792FD30E7930291147324A8
:104F400075190E0F1E0030F651F703E935E8C0E57C
:104F5000CFFCEC0E5315ED0596FA0BEC75E4C2E0B0
:104F6000E1EE4FF3DD05FD08040DDE0704FED0F58C
:104F70004BF85D023102D00CA209B2083A0009FFD9
:104F800060F5C2F74DF68BF6DBEC9EE88BE23BF565
:104F9000AEF56EF090E277DA36D2E40CCD3C5116E5
:104FA000D204F6EBBE09DBEA0E0AE8EF70087517CB
:104FB0007813DC1C0B0FB11802045E236D018D0603
:104FC0005FF9781465139A145FFF39FE7607A3051D
:104FD000131172078CFF9EF38009CE02080B64FC4C
:104FE00071FC14ED9EF881F587F55BFBB0FC0EFEBD
:104FF000FBF563F3B5EB2CF5CDF63001FF028B0723
:10500000F20342057908B60F9309EB0419028404F0
:105010008DFCC8FB83F52FF30BFAA3FF53FCCDEEF9
:10502000B1E4ADDE54E366DDB7E41AE321EBCDF77E
:105030009E3FE628190283E168F83BFE75F8A1114E
:10504000D4FBC128C61A752C3514D9130EFEAB0F2C
:10505000F516FB07B302DB04B019BC0F561177FD40
:105060004C0466F5E50071FA55FE7EF46D03BB074E
:10507000920049F91CF00CEC93E97FEF55F86209B6
:10508000030295F808EC1AEE98EB59F8D5FE920653
:105090009F0DC4130C1039020E0003049111131359
:1050A000D30EC4045AFC2EFAF3FA8E030606B60495
:1050B0005CF7BFE9D5DFC4E5FFE203ED50F06BEF2D
:1050C0008BE7B0E8A0DF87125F2B06F80CF75900DA
:1050D000CC1960F33207DBF6D90C7620FA16761974
:1050E000B613461B680D4D1A95025004DC08E219F0
:1050F000F00A2107BA0160090F0A90017CF942F514
:105100009AF7B4F74DFE92F4E4F1B9F6DAFDA6F49D
:10511000BDF5B7EA00E8D7E3CFEF70F7D5005AFE48
:105120000201070CD706E40416FE770110040913E8
:10513000D914230E3909FC041A0C440D390460FB00
:105140006707BE07770817F946ED82F5FBFC770283
:1051500004F62BE705DA5DE72AED56EB9AE5EA114E
:10516000190A24FFC30E6F16DFFB8ED612FAE10177
:10517000341AE90C94FD210E8422F922BC11EE08A8
:1051800029FF2B056813FC021BF92DFFAB0CFF1147
:10519000BA055DF92DF5E5FCB3F83CFA19F64BF9C3
:1051A000ECFC6D0211F605F355F4F9F322F957FD05
:1051B00039F6CCF448FECB01C50908087306D8FFC0
:1051C000A00481FC40FAA201C403540A850F560EC4
:1051D0006406C002DA004F06C80C2D0155033503E2
:1051E0001603CC05CAFC37F66EF14FF656ED71EC9E
:1051F000B0E016E568E35C10611C6DFFCD08851515
:10520000151113DD97ECC0FAF0024D08D4FFDB0C4A
:10521000D826051C110767FFFEFC09F863FC6B002C
:105220001DFA0603E8FEC1FF05018E02DCFA55F403
:105230000CF1FBFAB8FF68FD2FF8190467066E063B
:1052400081FF5BF9BEFB5F0063033C04B00EAB0D56
:105250009C0D79019F04A60353FD62F7E5FA5206FF
:10526000F20A2008FDFD61032C09A0081E062FFF8D
:1052700017003004C208D4FF0AFB96F6A0FE6C08A3
:10528000ED08C4F41AE4A0E05EE656EDC9ECEFEDDB
:10529000C3FFE6255E0139F9330C410D8EEB2EF28A
:1052A0002F0D26FDE0FE8105EB131C1D290D48ED99
:1052B00002FA020458F8E2F237FA60FF7F0368014D
:1052C0000CF9E6F2CAF3E4EDD3F66A0229FEE1FC3A
:1052D0001AFD9A05B40D990C62007E03F3041E01B9
:1052E00001013609E90CF307620DE10F2C0E7EFE79
:1052F00002F7BA00E10B4F165112660E310E17106D
:10530000E505C1FDAEF9BDF8FD02E0063109D202A6
:105310004503CE0466044CF942E93BE9ECEB0AF0A4
:1053200061EC15EF90EF41F51FED91F15DEDB4FDEE
:105330006E00DBE4F4005D0DF304F6F0291216159F
:10534000A9F618FAC0058E0B0D07CEFE1703A2139F
:105350005C034FF688FE49062FFB79F9D9FF5E0101
:10536000DEFA0BF67CFC38079F04810026044B0212
:1053700054FD9BFD5EFF33027A06C3058101B2FD39
:1053800015F807FE5907730BDB1246111B0E21118E
:1053900085132809870872096E08680A1810810B9E
:1053A0005B0797088A0054066F0CF30466F821F433
:1053B00055F2F0F56FFA61F0A9EF0DF4F9FCB6F8CB
:1053C0002AECF0E159E1CDE15CDCD8DC08DF68F8DB
:1053D000C9F4B5F590052005B3F5FCFFF511DAFD2C
:1053E0006BF5770D0F15FA0D1211BD0ECA13460895
:1053F000A002A00ADF0AF703A50D1F18480F4BFBF8
:1054000013F4D1F9A0FD32FB42FC76FD57F546F1CD
:1054100044FC6A0216F93AFB2400A905D002A0FD5B
:1054200068FCB204410D3F0DA113C414D00D9F0AB6
:105430009C0A2D0829074A0F140FDB0C240B700956
:10544000DF05F30215FFC804540A3F0B390CBF06F1
:10545000D3FDF6F3A1F0B5EA7AEC47EABBEEDCEB5C
:1054600042E9EEE2C6E469E58EE11DDB58DA6AD76F
:1054700019EB52F7EEE487FA480782045D01590FF1
:10548000EE02BA02C41A2F26811C5D1B8317EE128E
:105490000311D7059F0D1210390E9A0B9511800537
:1054A00078FE53F71DFAE7F818EF21EF46F528FDCF
:1054B000A4FD630149FE3DFE1EFC38FFA0074F041A
:1054C00043FC43FD1F06D406C7041503AE02CA07FA
:1054D0006F03970073049007EA056B0B6A1669184F
:1054E000EB13490DAD0DE109420209FA07FBB600C5
:1054F00014043502A2FA75F8CAF799F783F002EBA3
:1055000069E4F0E93DED5DEFBAEB1DE277D947DCE8
:10551000A5D9F5DBCFE22AED270A85004507520819
:105520002C0780059C108512CE07EF19FC20F81D72
:10553000AF16B013720E680F530634FFDEF8F3F99E
:1055400044059C10880DCC041CFF14FD2B0231FD7A
:105550007FFBA7FB59F88DF653FC34008FF9B6F7A3
:1055600022F945FD5605F1030E05A40335FCF7F9B4
:10557000F4FF720527058708D00922079902B506AE
:1055800010100912750EA10C9E0A5E07B007680282
:105590003CFEC0FAB4FBDDFA96FBA0FBE5F54DF34B
:1055A00069F5C1FA38F6FEF07CEE6AF01DF6DBF91B
:1055B0002EF938F45AEF72EA76EFADF215F056EEA6
:1055C000ECF66502EBF41CF5D8FABA019108960ED8
:1055D000C60E59FF2F09C70CF90C2E0AF304A60AB0
:1055E0000C149B1A180D1D044C004F05F70BB10D40
:1055F000AD0896039D03C0046705A1FB15F92AF4C5
:105600004FF850FBB8FF71FD26FAEDFB1CFC94002F
:1056100053FE7002ED03A00A2D08BE0353FE3CFFAB
:10562000A1FFF3003605D608860E350609032602CB
:10563000C80431001CFD7EFCC7FA89FF4E018608B4
:10564000530AFC070F05DA02ECFF62FB02021102AB
:105650006909ED068E013AF666ED96EC9CEF42F58F
:10566000BDF000F19AE995EB99E888EB4EE131EB5A
:10567000CAED31F32D03C6FC86FF89FD1E07000429
:10568000570BC010881157119F0E990DA70B030DD2
:10569000F40B100F8D11790E560AC806590801092E
:1056A0006B0243FF1EFFC403B5016204410023FDEA
:1056B00085FBB2F9FCFD5CFE76FCD0FB85FDC9FAEA
:1056C000C9FC8EFD24FABCF6F5F797F87CFC51FC7A
:1056D00003F923FCD803BF080708A60636038B0886
:1056E000E60740056F040D058909EA0E0713A80DAA
:1056F000120A1206DB052A069C0287F94EFA8EFD75
:105700003DFA21F7E8EEC7EF28F291F210EFA1E998
:10571000A5E75DEC93ED66ED51E660E560E82DF5FB
:10572000CDFAF4F0A3F2A3F523056E0F6818760FF7
:10573000540E5412E711E6159E142F15CB1289183A
:10574000291E3C1E8314740D9D0BAB09CD089D01D1
:1057500050F9DAFBBFFCD5FEC5FF12FAAFF5BBF27C
:1057600046EF9BF0F4F0DFECA2EF3DF742FD48FC82
:105770003EF817F2BEEFF4F0C7F472FB5DFFED01E7
:1057800078030D050B040C03FD008A014E0540084B
:10579000F30E0A134F12E30FB60B280C800DE30A29
:1057A000310A0C0497FF9CFFE6057005FC01BBFF66
:1057B0003BFDFCF8ACF0CDEA62E9F1EF17F46BF6D3
:1057C000C6F1C1ECAEE800E9FFEC2BF045F270F257
:1057D00016F90802280047027102AF06F80B2F11D4
:1057E000971417114B141816321CBA195C16FA0CC0
:1057F00006095B0AAD0A8E0A17098505EB00BD0094
:1058000095FB1AF6E8F182F2E0EE94EC84EDAAEC56
:105810007BED45EB97EAAFED0EF060F218F2B2F3D4
:10582000B8F23CF8D3F747FC0D0052FC1601850591
:105830001D0A3E08A80C270B3D0EE60FDA0E0111DB
:1058400049117610691058146A13AE108A0A670954
:105850001C08710373FD62FD7FFC19FC2AFFAF0277
:1058600031042A0266FED4FA34FEDAF731F6DDF8A6
:1058700081FA6DFC5EFDF0FDAFF943FA36F68AF46D
:105880002DF26DEF4AF082F7E3FD6100B9FF8DF86C
:105890006BF33FF574FE9403A7049E06D8087707C0
:1058A0003C068C04360138FD7E006804990423030D
:1058B00021FFE8FB38FB41F8EFF5D1F5FDF238F7B1
:1058C00064F914F868FA24FD2AFD4FFD05FC19F768
:1058D0003FF465F9B3FFED054C0800063D04C60131
:1058E000DEFF43028F0785071B0A4E0A7D09080A5F
:1058F000B809FD0C2C115B133B0F050F3809A703EA
:105900007B024B04A708DA0A900C2C07C606720229
:10591000BB015C01AF00F9FEEFFEE00293028800DC
:105920001DF98CF893F8A3FD45FEBBFBDBF654F1A3
:10593000CFEE5EEFABF440F428F39DF0BDF0B7ED91
:1059400018EBD4E8C1EA62EF4DF40BF419F257F604
:105950000BFDC5031B03C4036F081E0D930EF50F4B
:10596000490FA013FD16E814E40D23075005DB04CE
:105970009E055B05A6008CFE43FE56F9FCF8EEF58D
:10598000EBF150EF55F1F0F5E7F928FA45F777F923
:1059900042FDABFC85FF2306240A770D6B0E0C0D30
:1059A000670F30139612B5155A16390FB109C4088E
:1059B000980AF20B1F0AE6050E0132FF2AFB92F746
:1059C00097F6BEF4D6F368F74AF94DF87DF537F34C
:1059D0002BF6E7FBB1FC12FA5DF986F819FC06FF1D
:1059E00068035A0029FF61FE4B002C035300ADFFF2
:1059F000D9FFC1069D080605BFFC64F8B6F80BFE8A
:105A0000CE01DCFED9FBC2FBE3FB79F9D5F5C7F289
:105A10001AF7CDFC00010FFFD2F90EF60DF9870041
:105A2000C503AB034C023A0110031B07E207B7059D
:105A30009F06EE070F0A950CAD097D0490035507EC
:105A400045066404CB023602E50255FF53FC0CFC0C
:105A50002BFDA0FFB60058FDCAFBE9FB72FAB6FCAD
:105A600091FDD3FAF0FA4DFCE6FBC4F9EFF8F9F832
:105A700010FAF3FAC9FC22FDA8FD98FD7100120688
:105A8000C606190645058908990809078204C20156
:105A9000E6017E05390B7F0C5509BA06BB07F909EB
:105AA000CC0AFB081C0B1C0B2407E101A4FE40FEE2
:105AB00081FE2401A8FF7CFC75F714F349F032F154
:105AC000F7F4FFF332F430F348F6B9F665F69AF6D8
:105AD00004F4F6F023F167F8F3F922FD8A00A50635
:105AE000BB093507C1026F012B05650518050206C4
:105AF000F207A006F705F001DEFD90FC0FFDC3FEE6
:105B000001FEF0FB93FA0EFB6CFB75FB5AFB27FAC8
:105B10001EF8C6F740F732F88BF869FD9F01B10116
:105B2000A00151024E05A604B805F3065A09AC0BB4
:105B3000E20E050F490E330D200C9C0F330EB508F5
:105B400046031B05600AF20CC90A3506EDFF14FE78
:105B5000D3FCE8FA66FBFBFAF3FE2405B2061B064B
:105B6000E20307FF20FE00FC94FC27FE90013303B4
:105B7000460182016CFF08FDD2FA1DFAC6F5CAF48F
:105B800071F6F2F894FA19FCCCFABBF79EF754F7C9
:105B90008AF9F3F81BFB8FFB5CFBBCFD0E0011FDCB
:105BA00059FA65F9BAF94FFBFCFC55FE9EFD65FFFD
:105BB00072001C01DFFD14FDD1FADEFCFCFFE101E7
:105BC0008C0184FD7CFD66FCA6FD0CFF7E010301BB
:105BD00041FEDAFCD0FBF1FBB0004906CD09300CE8
:105BE0004D0A530A310AA309810C4910E9126114C4
:105BF000D31339127C0D6A0737060807CD089503C1
:105C00009CFE07FC4AFCBCFB45F95DF708F57DF9F5
:105C100048FA38F8C8F3A4F5DAFB7E00F6FF8FFDEA
:105C200078FE51FF1F022403810682060D079807A4
:105C30001A03AF00B300D0015102D80130000302B3
:105C4000FC015EFE81FC50F96CF529F819FF7EFF1E
:105C500025FECBF8FAF2F0F463F700F4A7F3EAF3C9
:105C60001CF605FBF8FAFBF418F0B0EF49EFEEF57F
:105C700020F9ABF9EEFBC7FDD404F403B2029E0198
:105C8000D400E3FF10FFD1FECDFD82FDF8FCD0FC77
:105C900003FD3BFDA3FC42FCB4FB0FFBD2F93BF838
:105CA0008BF6E5F4C0F39FF388F702F6F6F446F9B5
:105CB0007CFC9BFDFBFE3002360688087B0B740ED5
:105CC0000E0ED20DA50E0B0EFC0BB60A3D085B079F
:105CD0000B076805F4044B040602AA021903940199
:105CE00093013A02B20168019B01AF00B3008B003F
:105CF0007E003F0149019100F201D301D001B502BC
:105D00000E034E033403150379033B031802F2011B
:105D100077015800C7FFC2FEEFFC41FC8FFA0AF979
:105D20002CF804F78BF6ECF524F590F423F4E9F362
:105D300001F4D3F3D3F352F445F493F4E0F4E9F32C
:105D40002EF208F220F278F6FAF8E5F52AF974FE58
:105D50005B0065013A0311075C0AA60C21100111D2
:105D6000C00FE80F0F10E00DB30BE2082B066F0514
:105D70000D032D018D00E5FD19FC86FC71FB4CFB2C
:105D800066FC5BFC57FCEEFD81FE80FFE800040131
:105D90006C02E003D804A706310870086F09000BF5
:105DA000990B8F0C5B0CC00B540CAE0B580A9F095F
:105DB0007B073F0572034E017BFF9EFD9DFA58F85D
